{
  "contractName": "DemonEyes",
  "abi": [
    {
      "inputs": [
        {
          "internalType": "string",
          "name": "_name",
          "type": "string"
        },
        {
          "internalType": "string",
          "name": "_symbol",
          "type": "string"
        },
        {
          "internalType": "string",
          "name": "_initNotRevealedUri",
          "type": "string"
        }
      ],
      "stateMutability": "nonpayable",
      "type": "constructor"
    },
    {
      "anonymous": false,
      "inputs": [
        {
          "indexed": true,
          "internalType": "address",
          "name": "owner",
          "type": "address"
        },
        {
          "indexed": true,
          "internalType": "address",
          "name": "approved",
          "type": "address"
        },
        {
          "indexed": true,
          "internalType": "uint256",
          "name": "tokenId",
          "type": "uint256"
        }
      ],
      "name": "Approval",
      "type": "event"
    },
    {
      "anonymous": false,
      "inputs": [
        {
          "indexed": true,
          "internalType": "address",
          "name": "owner",
          "type": "address"
        },
        {
          "indexed": true,
          "internalType": "address",
          "name": "operator",
          "type": "address"
        },
        {
          "indexed": false,
          "internalType": "bool",
          "name": "approved",
          "type": "bool"
        }
      ],
      "name": "ApprovalForAll",
      "type": "event"
    },
    {
      "anonymous": false,
      "inputs": [
        {
          "indexed": true,
          "internalType": "address",
          "name": "previousOwner",
          "type": "address"
        },
        {
          "indexed": true,
          "internalType": "address",
          "name": "newOwner",
          "type": "address"
        }
      ],
      "name": "OwnershipTransferred",
      "type": "event"
    },
    {
      "anonymous": false,
      "inputs": [
        {
          "indexed": true,
          "internalType": "address",
          "name": "from",
          "type": "address"
        },
        {
          "indexed": true,
          "internalType": "address",
          "name": "to",
          "type": "address"
        },
        {
          "indexed": true,
          "internalType": "uint256",
          "name": "tokenId",
          "type": "uint256"
        }
      ],
      "name": "Transfer",
      "type": "event"
    },
    {
      "inputs": [],
      "name": "MAX_MINT_AMOUNT",
      "outputs": [
        {
          "internalType": "uint256",
          "name": "",
          "type": "uint256"
        }
      ],
      "stateMutability": "view",
      "type": "function"
    },
    {
      "inputs": [],
      "name": "MAX_SUPPLY",
      "outputs": [
        {
          "internalType": "uint256",
          "name": "",
          "type": "uint256"
        }
      ],
      "stateMutability": "view",
      "type": "function"
    },
    {
      "inputs": [
        {
          "internalType": "address",
          "name": "to",
          "type": "address"
        },
        {
          "internalType": "uint256",
          "name": "tokenId",
          "type": "uint256"
        }
      ],
      "name": "approve",
      "outputs": [],
      "stateMutability": "nonpayable",
      "type": "function"
    },
    {
      "inputs": [
        {
          "internalType": "address",
          "name": "owner",
          "type": "address"
        }
      ],
      "name": "balanceOf",
      "outputs": [
        {
          "internalType": "uint256",
          "name": "",
          "type": "uint256"
        }
      ],
      "stateMutability": "view",
      "type": "function"
    },
    {
      "inputs": [],
      "name": "cost",
      "outputs": [
        {
          "internalType": "uint256",
          "name": "",
          "type": "uint256"
        }
      ],
      "stateMutability": "view",
      "type": "function"
    },
    {
      "inputs": [
        {
          "internalType": "uint256",
          "name": "tokenId",
          "type": "uint256"
        }
      ],
      "name": "getApproved",
      "outputs": [
        {
          "internalType": "address",
          "name": "",
          "type": "address"
        }
      ],
      "stateMutability": "view",
      "type": "function"
    },
    {
      "inputs": [],
      "name": "isActive",
      "outputs": [
        {
          "internalType": "bool",
          "name": "",
          "type": "bool"
        }
      ],
      "stateMutability": "view",
      "type": "function"
    },
    {
      "inputs": [
        {
          "internalType": "address",
          "name": "owner",
          "type": "address"
        },
        {
          "internalType": "address",
          "name": "operator",
          "type": "address"
        }
      ],
      "name": "isApprovedForAll",
      "outputs": [
        {
          "internalType": "bool",
          "name": "",
          "type": "bool"
        }
      ],
      "stateMutability": "view",
      "type": "function"
    },
    {
      "inputs": [],
      "name": "name",
      "outputs": [
        {
          "internalType": "string",
          "name": "",
          "type": "string"
        }
      ],
      "stateMutability": "view",
      "type": "function"
    },
    {
      "inputs": [],
      "name": "owner",
      "outputs": [
        {
          "internalType": "address",
          "name": "",
          "type": "address"
        }
      ],
      "stateMutability": "view",
      "type": "function"
    },
    {
      "inputs": [
        {
          "internalType": "uint256",
          "name": "tokenId",
          "type": "uint256"
        }
      ],
      "name": "ownerOf",
      "outputs": [
        {
          "internalType": "address",
          "name": "",
          "type": "address"
        }
      ],
      "stateMutability": "view",
      "type": "function"
    },
    {
      "inputs": [],
      "name": "renounceOwnership",
      "outputs": [],
      "stateMutability": "nonpayable",
      "type": "function"
    },
    {
      "inputs": [
        {
          "internalType": "address",
          "name": "from",
          "type": "address"
        },
        {
          "internalType": "address",
          "name": "to",
          "type": "address"
        },
        {
          "internalType": "uint256",
          "name": "tokenId",
          "type": "uint256"
        }
      ],
      "name": "safeTransferFrom",
      "outputs": [],
      "stateMutability": "nonpayable",
      "type": "function"
    },
    {
      "inputs": [
        {
          "internalType": "address",
          "name": "from",
          "type": "address"
        },
        {
          "internalType": "address",
          "name": "to",
          "type": "address"
        },
        {
          "internalType": "uint256",
          "name": "tokenId",
          "type": "uint256"
        },
        {
          "internalType": "bytes",
          "name": "_data",
          "type": "bytes"
        }
      ],
      "name": "safeTransferFrom",
      "outputs": [],
      "stateMutability": "nonpayable",
      "type": "function"
    },
    {
      "inputs": [
        {
          "internalType": "address",
          "name": "operator",
          "type": "address"
        },
        {
          "internalType": "bool",
          "name": "approved",
          "type": "bool"
        }
      ],
      "name": "setApprovalForAll",
      "outputs": [],
      "stateMutability": "nonpayable",
      "type": "function"
    },
    {
      "inputs": [
        {
          "internalType": "bytes4",
          "name": "interfaceId",
          "type": "bytes4"
        }
      ],
      "name": "supportsInterface",
      "outputs": [
        {
          "internalType": "bool",
          "name": "",
          "type": "bool"
        }
      ],
      "stateMutability": "view",
      "type": "function"
    },
    {
      "inputs": [],
      "name": "symbol",
      "outputs": [
        {
          "internalType": "string",
          "name": "",
          "type": "string"
        }
      ],
      "stateMutability": "view",
      "type": "function"
    },
    {
      "inputs": [
        {
          "internalType": "uint256",
          "name": "index",
          "type": "uint256"
        }
      ],
      "name": "tokenByIndex",
      "outputs": [
        {
          "internalType": "uint256",
          "name": "",
          "type": "uint256"
        }
      ],
      "stateMutability": "view",
      "type": "function"
    },
    {
      "inputs": [
        {
          "internalType": "address",
          "name": "owner",
          "type": "address"
        },
        {
          "internalType": "uint256",
          "name": "index",
          "type": "uint256"
        }
      ],
      "name": "tokenOfOwnerByIndex",
      "outputs": [
        {
          "internalType": "uint256",
          "name": "",
          "type": "uint256"
        }
      ],
      "stateMutability": "view",
      "type": "function"
    },
    {
      "inputs": [],
      "name": "totalSupply",
      "outputs": [
        {
          "internalType": "uint256",
          "name": "",
          "type": "uint256"
        }
      ],
      "stateMutability": "view",
      "type": "function"
    },
    {
      "inputs": [
        {
          "internalType": "address",
          "name": "from",
          "type": "address"
        },
        {
          "internalType": "address",
          "name": "to",
          "type": "address"
        },
        {
          "internalType": "uint256",
          "name": "tokenId",
          "type": "uint256"
        }
      ],
      "name": "transferFrom",
      "outputs": [],
      "stateMutability": "nonpayable",
      "type": "function"
    },
    {
      "inputs": [
        {
          "internalType": "address",
          "name": "newOwner",
          "type": "address"
        }
      ],
      "name": "transferOwnership",
      "outputs": [],
      "stateMutability": "nonpayable",
      "type": "function"
    },
    {
      "inputs": [
        {
          "internalType": "uint256",
          "name": "_mintAmount",
          "type": "uint256"
        }
      ],
      "name": "mint",
      "outputs": [],
      "stateMutability": "payable",
      "type": "function"
    },
    {
      "inputs": [
        {
          "internalType": "address",
          "name": "_owner",
          "type": "address"
        }
      ],
      "name": "walletOfOwner",
      "outputs": [
        {
          "internalType": "uint256[]",
          "name": "",
          "type": "uint256[]"
        }
      ],
      "stateMutability": "view",
      "type": "function"
    },
    {
      "inputs": [
        {
          "internalType": "uint256",
          "name": "tokenId",
          "type": "uint256"
        }
      ],
      "name": "tokenURI",
      "outputs": [
        {
          "internalType": "string",
          "name": "",
          "type": "string"
        }
      ],
      "stateMutability": "view",
      "type": "function"
    },
    {
      "inputs": [
        {
          "internalType": "uint256",
          "name": "_newCost",
          "type": "uint256"
        }
      ],
      "name": "setCost",
      "outputs": [],
      "stateMutability": "nonpayable",
      "type": "function"
    },
    {
      "inputs": [
        {
          "internalType": "string",
          "name": "_notRevealedURI",
          "type": "string"
        }
      ],
      "name": "setNotRevealedURI",
      "outputs": [],
      "stateMutability": "nonpayable",
      "type": "function"
    },
    {
      "inputs": [
        {
          "internalType": "string",
          "name": "_newBaseURI",
          "type": "string"
        }
      ],
      "name": "setBaseURI",
      "outputs": [],
      "stateMutability": "nonpayable",
      "type": "function"
    },
    {
      "inputs": [
        {
          "internalType": "bool",
          "name": "_isActive",
          "type": "bool"
        }
      ],
      "name": "setIsActive",
      "outputs": [],
      "stateMutability": "nonpayable",
      "type": "function"
    },
    {
      "inputs": [],
      "name": "withdraw",
      "outputs": [],
      "stateMutability": "nonpayable",
      "type": "function"
    }
  ],
  "bytecode": "0x60806040526000600d60006101000a81548160ff02191690831515021790555066470de4df820000600e553480156200003757600080fd5b506040516200497a3803806200497a83398181016040528101906200005d9190620004bd565b828281600090805190602001906200007792919062000270565b5080600190805190602001906200009092919062000270565b505050620000b3620000a7620000cd60201b60201c565b620000d560201b60201c565b620000c4816200019b60201b60201c565b5050506200065e565b600033905090565b6000600a60009054906101000a900473ffffffffffffffffffffffffffffffffffffffff16905081600a60006101000a81548173ffffffffffffffffffffffffffffffffffffffff021916908373ffffffffffffffffffffffffffffffffffffffff1602179055508173ffffffffffffffffffffffffffffffffffffffff168173ffffffffffffffffffffffffffffffffffffffff167f8be0079c531659141344cd1fd0a4f28419497f9722a3daafe3b4186f6b6457e060405160405180910390a35050565b620001ab620000cd60201b60201c565b73ffffffffffffffffffffffffffffffffffffffff16620001d16200024660201b60201c565b73ffffffffffffffffffffffffffffffffffffffff16146200022a576040517f08c379a00000000000000000000000000000000000000000000000000000000081526004016200022190620005d7565b60405180910390fd5b80600c90805190602001906200024292919062000270565b5050565b6000600a60009054906101000a900473ffffffffffffffffffffffffffffffffffffffff16905090565b8280546200027e9062000628565b90600052602060002090601f016020900481019282620002a25760008555620002ee565b82601f10620002bd57805160ff1916838001178555620002ee565b82800160010185558215620002ee579182015b82811115620002ed578251825591602001919060010190620002d0565b5b509050620002fd919062000301565b5090565b5b808211156200031c57600081600090555060010162000302565b5090565b6000604051905090565b600080fd5b600080fd5b600080fd5b600080fd5b6000601f19601f8301169050919050565b7f4e487b7100000000000000000000000000000000000000000000000000000000600052604160045260246000fd5b62000389826200033e565b810181811067ffffffffffffffff82111715620003ab57620003aa6200034f565b5b80604052505050565b6000620003c062000320565b9050620003ce82826200037e565b919050565b600067ffffffffffffffff821115620003f157620003f06200034f565b5b620003fc826200033e565b9050602081019050919050565b60005b83811015620004295780820151818401526020810190506200040c565b8381111562000439576000848401525b50505050565b6000620004566200045084620003d3565b620003b4565b90508281526020810184848401111562000475576200047462000339565b5b6200048284828562000409565b509392505050565b600082601f830112620004a257620004a162000334565b5b8151620004b48482602086016200043f565b91505092915050565b600080600060608486031215620004d957620004d86200032a565b5b600084015167ffffffffffffffff811115620004fa57620004f96200032f565b5b62000508868287016200048a565b935050602084015167ffffffffffffffff8111156200052c576200052b6200032f565b5b6200053a868287016200048a565b925050604084015167ffffffffffffffff8111156200055e576200055d6200032f565b5b6200056c868287016200048a565b9150509250925092565b600082825260208201905092915050565b7f4f776e61626c653a2063616c6c6572206973206e6f7420746865206f776e6572600082015250565b6000620005bf60208362000576565b9150620005cc8262000587565b602082019050919050565b60006020820190508181036000830152620005f281620005b0565b9050919050565b7f4e487b7100000000000000000000000000000000000000000000000000000000600052602260045260246000fd5b600060028204905060018216806200064157607f821691505b60208210811415620006585762000657620005f9565b5b50919050565b61430c806200066e6000396000f3fe6080604052600436106101cd5760003560e01c80634f6ccce7116100f7578063a0712d6811610095578063e985e9c511610064578063e985e9c514610679578063f2c4ce1e146106b6578063f2fde38b146106df578063fa9b701814610708576101cd565b8063a0712d68146105ce578063a22cb465146105ea578063b88d4fde14610613578063c87b56dd1461063c576101cd565b806370a08231116100d157806370a0823114610524578063715018a6146105615780638da5cb5b1461057857806395d89b41146105a3576101cd565b80634f6ccce71461048157806355f804b3146104be5780636352211e146104e7576101cd565b806323b872dd1161016f5780633ccfd60b1161013e5780633ccfd60b146103db57806342842e0e146103f2578063438b63001461041b57806344a0d68a14610458576101cd565b806323b872dd146103215780632750fc781461034a5780632f745c591461037357806332cb6b0c146103b0576101cd565b8063095ea7b3116101ab578063095ea7b31461027757806313faede6146102a057806318160ddd146102cb57806322f3e2d4146102f6576101cd565b806301ffc9a7146101d257806306fdde031461020f578063081812fc1461023a575b600080fd5b3480156101de57600080fd5b506101f960048036038101906101f49190612aad565b610733565b6040516102069190612af5565b60405180910390f35b34801561021b57600080fd5b506102246107ad565b6040516102319190612ba9565b60405180910390f35b34801561024657600080fd5b50610261600480360381019061025c9190612c01565b61083f565b60405161026e9190612c6f565b60405180910390f35b34801561028357600080fd5b5061029e60048036038101906102999190612cb6565b6108c4565b005b3480156102ac57600080fd5b506102b56109dc565b6040516102c29190612d05565b60405180910390f35b3480156102d757600080fd5b506102e06109e2565b6040516102ed9190612d05565b60405180910390f35b34801561030257600080fd5b5061030b6109ef565b6040516103189190612af5565b60405180910390f35b34801561032d57600080fd5b5061034860048036038101906103439190612d20565b610a02565b005b34801561035657600080fd5b50610371600480360381019061036c9190612d9f565b610a62565b005b34801561037f57600080fd5b5061039a60048036038101906103959190612cb6565b610afb565b6040516103a79190612d05565b60405180910390f35b3480156103bc57600080fd5b506103c5610ba0565b6040516103d29190612d05565b60405180910390f35b3480156103e757600080fd5b506103f0610ba5565b005b3480156103fe57600080fd5b5061041960048036038101906104149190612d20565b610cb4565b005b34801561042757600080fd5b50610442600480360381019061043d9190612dcc565b610cd4565b60405161044f9190612eb7565b60405180910390f35b34801561046457600080fd5b5061047f600480360381019061047a9190612c01565b610d82565b005b34801561048d57600080fd5b506104a860048036038101906104a39190612c01565b610e08565b6040516104b59190612d05565b60405180910390f35b3480156104ca57600080fd5b506104e560048036038101906104e0919061300e565b610e79565b005b3480156104f357600080fd5b5061050e60048036038101906105099190612c01565b610f0f565b60405161051b9190612c6f565b60405180910390f35b34801561053057600080fd5b5061054b60048036038101906105469190612dcc565b610fc1565b6040516105589190612d05565b60405180910390f35b34801561056d57600080fd5b50610576611079565b005b34801561058457600080fd5b5061058d611101565b60405161059a9190612c6f565b60405180910390f35b3480156105af57600080fd5b506105b861112b565b6040516105c59190612ba9565b60405180910390f35b6105e860048036038101906105e39190612c01565b6111bd565b005b3480156105f657600080fd5b50610611600480360381019061060c9190613057565b6113ce565b005b34801561061f57600080fd5b5061063a60048036038101906106359190613138565b61154f565b005b34801561064857600080fd5b50610663600480360381019061065e9190612c01565b6115b1565b6040516106709190612ba9565b60405180910390f35b34801561068557600080fd5b506106a0600480360381019061069b91906131bb565b611673565b6040516106ad9190612af5565b60405180910390f35b3480156106c257600080fd5b506106dd60048036038101906106d8919061300e565b611707565b005b3480156106eb57600080fd5b5061070660048036038101906107019190612dcc565b61179d565b005b34801561071457600080fd5b5061071d611895565b60405161072a9190612d05565b60405180910390f35b60007f780e9d63000000000000000000000000000000000000000000000000000000007bffffffffffffffffffffffffffffffffffffffffffffffffffffffff1916827bffffffffffffffffffffffffffffffffffffffffffffffffffffffff191614806107a657506107a58261189a565b5b9050919050565b6060600080546107bc9061322a565b80601f01602080910402602001604051908101604052809291908181526020018280546107e89061322a565b80156108355780601f1061080a57610100808354040283529160200191610835565b820191906000526020600020905b81548152906001019060200180831161081857829003601f168201915b5050505050905090565b600061084a8261197c565b610889576040517f08c379a0000000000000000000000000000000000000000000000000000000008152600401610880906132ce565b60405180910390fd5b6004600083815260200190815260200160002060009054906101000a900473ffffffffffffffffffffffffffffffffffffffff169050919050565b60006108cf82610f0f565b90508073ffffffffffffffffffffffffffffffffffffffff168373ffffffffffffffffffffffffffffffffffffffff161415610940576040517f08c379a000000000000000000000000000000000000000000000000000000000815260040161093790613360565b60405180910390fd5b8073ffffffffffffffffffffffffffffffffffffffff1661095f6119e8565b73ffffffffffffffffffffffffffffffffffffffff16148061098e575061098d816109886119e8565b611673565b5b6109cd576040517f08c379a00000000000000000000000000000000000000000000000000000000081526004016109c4906133f2565b60405180910390fd5b6109d783836119f0565b505050565b600e5481565b6000600880549050905090565b600d60009054906101000a900460ff1681565b610a13610a0d6119e8565b82611aa9565b610a52576040517f08c379a0000000000000000000000000000000000000000000000000000000008152600401610a4990613484565b60405180910390fd5b610a5d838383611b87565b505050565b610a6a6119e8565b73ffffffffffffffffffffffffffffffffffffffff16610a88611101565b73ffffffffffffffffffffffffffffffffffffffff1614610ade576040517f08c379a0000000000000000000000000000000000000000000000000000000008152600401610ad5906134f0565b60405180910390fd5b80600d60006101000a81548160ff02191690831515021790555050565b6000610b0683610fc1565b8210610b47576040517f08c379a0000000000000000000000000000000000000000000000000000000008152600401610b3e90613582565b60405180910390fd5b600660008473ffffffffffffffffffffffffffffffffffffffff1673ffffffffffffffffffffffffffffffffffffffff168152602001908152602001600020600083815260200190815260200160002054905092915050565b601981565b610bad6119e8565b73ffffffffffffffffffffffffffffffffffffffff16610bcb611101565b73ffffffffffffffffffffffffffffffffffffffff1614610c21576040517f08c379a0000000000000000000000000000000000000000000000000000000008152600401610c18906134f0565b60405180910390fd5b60004711610c64576040517f08c379a0000000000000000000000000000000000000000000000000000000008152600401610c5b906135ee565b60405180910390fd5b610c6c611101565b73ffffffffffffffffffffffffffffffffffffffff166108fc479081150290604051600060405180830381858888f19350505050158015610cb1573d6000803e3d6000fd5b50565b610ccf8383836040518060200160405280600081525061154f565b505050565b60606000610ce183610fc1565b905060008167ffffffffffffffff811115610cff57610cfe612ee3565b5b604051908082528060200260200182016040528015610d2d5781602001602082028036833780820191505090505b50905060005b82811015610d7757610d458582610afb565b828281518110610d5857610d5761360e565b5b6020026020010181815250508080610d6f9061366c565b915050610d33565b508092505050919050565b610d8a6119e8565b73ffffffffffffffffffffffffffffffffffffffff16610da8611101565b73ffffffffffffffffffffffffffffffffffffffff1614610dfe576040517f08c379a0000000000000000000000000000000000000000000000000000000008152600401610df5906134f0565b60405180910390fd5b80600e8190555050565b6000610e126109e2565b8210610e53576040517f08c379a0000000000000000000000000000000000000000000000000000000008152600401610e4a90613727565b60405180910390fd5b60088281548110610e6757610e6661360e565b5b90600052602060002001549050919050565b610e816119e8565b73ffffffffffffffffffffffffffffffffffffffff16610e9f611101565b73ffffffffffffffffffffffffffffffffffffffff1614610ef5576040517f08c379a0000000000000000000000000000000000000000000000000000000008152600401610eec906134f0565b60405180910390fd5b80600b9080519060200190610f0b92919061299e565b5050565b6000806002600084815260200190815260200160002060009054906101000a900473ffffffffffffffffffffffffffffffffffffffff169050600073ffffffffffffffffffffffffffffffffffffffff168173ffffffffffffffffffffffffffffffffffffffff161415610fb8576040517f08c379a0000000000000000000000000000000000000000000000000000000008152600401610faf906137b9565b60405180910390fd5b80915050919050565b60008073ffffffffffffffffffffffffffffffffffffffff168273ffffffffffffffffffffffffffffffffffffffff161415611032576040517f08c379a00000000000000000000000000000000000000000000000000000000081526004016110299061384b565b60405180910390fd5b600360008373ffffffffffffffffffffffffffffffffffffffff1673ffffffffffffffffffffffffffffffffffffffff168152602001908152602001600020549050919050565b6110816119e8565b73ffffffffffffffffffffffffffffffffffffffff1661109f611101565b73ffffffffffffffffffffffffffffffffffffffff16146110f5576040517f08c379a00000000000000000000000000000000000000000000000000000000081526004016110ec906134f0565b60405180910390fd5b6110ff6000611de3565b565b6000600a60009054906101000a900473ffffffffffffffffffffffffffffffffffffffff16905090565b60606001805461113a9061322a565b80601f01602080910402602001604051908101604052809291908181526020018280546111669061322a565b80156111b35780601f10611188576101008083540402835291602001916111b3565b820191906000526020600020905b81548152906001019060200180831161119657829003601f168201915b5050505050905090565b600d60009054906101000a900460ff1661120c576040517f08c379a0000000000000000000000000000000000000000000000000000000008152600401611203906138b7565b60405180910390fd5b6000811161124f576040517f08c379a000000000000000000000000000000000000000000000000000000000815260040161124690613923565b60405180910390fd5b6002811115611293576040517f08c379a000000000000000000000000000000000000000000000000000000000815260040161128a906139b5565b60405180910390fd5b60196112af826112a16109e2565b611ea990919063ffffffff16565b11156112f0576040517f08c379a00000000000000000000000000000000000000000000000000000000081526004016112e790613a21565b60405180910390fd5b6112f8611101565b73ffffffffffffffffffffffffffffffffffffffff163373ffffffffffffffffffffffffffffffffffffffff16146113825761133f81600e54611ebf90919063ffffffff16565b341015611381576040517f08c379a000000000000000000000000000000000000000000000000000000000815260040161137890613a8d565b60405180910390fd5b5b60005b818110156113ca5760006113aa600161139c6109e2565b611ea990919063ffffffff16565b90506113b63382611ed5565b5080806113c29061366c565b915050611385565b5050565b6113d66119e8565b73ffffffffffffffffffffffffffffffffffffffff168273ffffffffffffffffffffffffffffffffffffffff161415611444576040517f08c379a000000000000000000000000000000000000000000000000000000000815260040161143b90613af9565b60405180910390fd5b80600560006114516119e8565b73ffffffffffffffffffffffffffffffffffffffff1673ffffffffffffffffffffffffffffffffffffffff16815260200190815260200160002060008473ffffffffffffffffffffffffffffffffffffffff1673ffffffffffffffffffffffffffffffffffffffff16815260200190815260200160002060006101000a81548160ff0219169083151502179055508173ffffffffffffffffffffffffffffffffffffffff166114fe6119e8565b73ffffffffffffffffffffffffffffffffffffffff167f17307eab39ab6107e8899845ad3d59bd9653f200f220920489ca2b5937696c31836040516115439190612af5565b60405180910390a35050565b61156061155a6119e8565b83611aa9565b61159f576040517f08c379a000000000000000000000000000000000000000000000000000000000815260040161159690613484565b60405180910390fd5b6115ab84848484611ef3565b50505050565b60606115bc8261197c565b6115fb576040517f08c379a00000000000000000000000000000000000000000000000000000000081526004016115f290613b65565b60405180910390fd5b6000611605611f4f565b9050600081511161164057600c61161b84611fe1565b60405160200161162c929190613c55565b60405160208183030381529060405261166b565b8061164a84611fe1565b60405160200161165b929190613c79565b6040516020818303038152906040525b915050919050565b6000600560008473ffffffffffffffffffffffffffffffffffffffff1673ffffffffffffffffffffffffffffffffffffffff16815260200190815260200160002060008373ffffffffffffffffffffffffffffffffffffffff1673ffffffffffffffffffffffffffffffffffffffff16815260200190815260200160002060009054906101000a900460ff16905092915050565b61170f6119e8565b73ffffffffffffffffffffffffffffffffffffffff1661172d611101565b73ffffffffffffffffffffffffffffffffffffffff1614611783576040517f08c379a000000000000000000000000000000000000000000000000000000000815260040161177a906134f0565b60405180910390fd5b80600c908051906020019061179992919061299e565b5050565b6117a56119e8565b73ffffffffffffffffffffffffffffffffffffffff166117c3611101565b73ffffffffffffffffffffffffffffffffffffffff1614611819576040517f08c379a0000000000000000000000000000000000000000000000000000000008152600401611810906134f0565b60405180910390fd5b600073ffffffffffffffffffffffffffffffffffffffff168173ffffffffffffffffffffffffffffffffffffffff161415611889576040517f08c379a000000000000000000000000000000000000000000000000000000000815260040161188090613d0f565b60405180910390fd5b61189281611de3565b50565b600281565b60007f80ac58cd000000000000000000000000000000000000000000000000000000007bffffffffffffffffffffffffffffffffffffffffffffffffffffffff1916827bffffffffffffffffffffffffffffffffffffffffffffffffffffffff1916148061196557507f5b5e139f000000000000000000000000000000000000000000000000000000007bffffffffffffffffffffffffffffffffffffffffffffffffffffffff1916827bffffffffffffffffffffffffffffffffffffffffffffffffffffffff1916145b80611975575061197482612142565b5b9050919050565b60008073ffffffffffffffffffffffffffffffffffffffff166002600084815260200190815260200160002060009054906101000a900473ffffffffffffffffffffffffffffffffffffffff1673ffffffffffffffffffffffffffffffffffffffff1614159050919050565b600033905090565b816004600083815260200190815260200160002060006101000a81548173ffffffffffffffffffffffffffffffffffffffff021916908373ffffffffffffffffffffffffffffffffffffffff160217905550808273ffffffffffffffffffffffffffffffffffffffff16611a6383610f0f565b73ffffffffffffffffffffffffffffffffffffffff167f8c5be1e5ebec7d5bd14f71427d1e84f3dd0314c0f7b2291e5b200ac8c7c3b92560405160405180910390a45050565b6000611ab48261197c565b611af3576040517f08c379a0000000000000000000000000000000000000000000000000000000008152600401611aea90613da1565b60405180910390fd5b6000611afe83610f0f565b90508073ffffffffffffffffffffffffffffffffffffffff168473ffffffffffffffffffffffffffffffffffffffff161480611b6d57508373ffffffffffffffffffffffffffffffffffffffff16611b558461083f565b73ffffffffffffffffffffffffffffffffffffffff16145b80611b7e5750611b7d8185611673565b5b91505092915050565b8273ffffffffffffffffffffffffffffffffffffffff16611ba782610f0f565b73ffffffffffffffffffffffffffffffffffffffff1614611bfd576040517f08c379a0000000000000000000000000000000000000000000000000000000008152600401611bf490613e33565b60405180910390fd5b600073ffffffffffffffffffffffffffffffffffffffff168273ffffffffffffffffffffffffffffffffffffffff161415611c6d576040517f08c379a0000000000000000000000000000000000000000000000000000000008152600401611c6490613ec5565b60405180910390fd5b611c788383836121ac565b611c836000826119f0565b6001600360008573ffffffffffffffffffffffffffffffffffffffff1673ffffffffffffffffffffffffffffffffffffffff1681526020019081526020016000206000828254611cd39190613ee5565b925050819055506001600360008473ffffffffffffffffffffffffffffffffffffffff1673ffffffffffffffffffffffffffffffffffffffff1681526020019081526020016000206000828254611d2a9190613f19565b92505081905550816002600083815260200190815260200160002060006101000a81548173ffffffffffffffffffffffffffffffffffffffff021916908373ffffffffffffffffffffffffffffffffffffffff160217905550808273ffffffffffffffffffffffffffffffffffffffff168473ffffffffffffffffffffffffffffffffffffffff167fddf252ad1be2c89b69c2b068fc378daa952ba7f163c4a11628f55a4df523b3ef60405160405180910390a4505050565b6000600a60009054906101000a900473ffffffffffffffffffffffffffffffffffffffff16905081600a60006101000a81548173ffffffffffffffffffffffffffffffffffffffff021916908373ffffffffffffffffffffffffffffffffffffffff1602179055508173ffffffffffffffffffffffffffffffffffffffff168173ffffffffffffffffffffffffffffffffffffffff167f8be0079c531659141344cd1fd0a4f28419497f9722a3daafe3b4186f6b6457e060405160405180910390a35050565b60008183611eb79190613f19565b905092915050565b60008183611ecd9190613f6f565b905092915050565b611eef8282604051806020016040528060008152506122c0565b5050565b611efe848484611b87565b611f0a8484848461231b565b611f49576040517f08c379a0000000000000000000000000000000000000000000000000000000008152600401611f409061403b565b60405180910390fd5b50505050565b6060600b8054611f5e9061322a565b80601f0160208091040260200160405190810160405280929190818152602001828054611f8a9061322a565b8015611fd75780601f10611fac57610100808354040283529160200191611fd7565b820191906000526020600020905b815481529060010190602001808311611fba57829003601f168201915b5050505050905090565b60606000821415612029576040518060400160405280600181526020017f3000000000000000000000000000000000000000000000000000000000000000815250905061213d565b600082905060005b6000821461205b5780806120449061366c565b915050600a82612054919061408a565b9150612031565b60008167ffffffffffffffff81111561207757612076612ee3565b5b6040519080825280601f01601f1916602001820160405280156120a95781602001600182028036833780820191505090505b5090505b60008514612136576001826120c29190613ee5565b9150600a856120d191906140bb565b60306120dd9190613f19565b60f81b8183815181106120f3576120f261360e565b5b60200101907effffffffffffffffffffffffffffffffffffffffffffffffffffffffffffff1916908160001a905350600a8561212f919061408a565b94506120ad565b8093505050505b919050565b60007f01ffc9a7000000000000000000000000000000000000000000000000000000007bffffffffffffffffffffffffffffffffffffffffffffffffffffffff1916827bffffffffffffffffffffffffffffffffffffffffffffffffffffffff1916149050919050565b6121b78383836124b2565b600073ffffffffffffffffffffffffffffffffffffffff168373ffffffffffffffffffffffffffffffffffffffff1614156121fa576121f5816124b7565b612239565b8173ffffffffffffffffffffffffffffffffffffffff168373ffffffffffffffffffffffffffffffffffffffff1614612238576122378382612500565b5b5b600073ffffffffffffffffffffffffffffffffffffffff168273ffffffffffffffffffffffffffffffffffffffff16141561227c576122778161266d565b6122bb565b8273ffffffffffffffffffffffffffffffffffffffff168273ffffffffffffffffffffffffffffffffffffffff16146122ba576122b9828261273e565b5b5b505050565b6122ca83836127bd565b6122d7600084848461231b565b612316576040517f08c379a000000000000000000000000000000000000000000000000000000000815260040161230d9061403b565b60405180910390fd5b505050565b600061233c8473ffffffffffffffffffffffffffffffffffffffff1661298b565b156124a5578373ffffffffffffffffffffffffffffffffffffffff1663150b7a026123656119e8565b8786866040518563ffffffff1660e01b81526004016123879493929190614141565b602060405180830381600087803b1580156123a157600080fd5b505af19250505080156123d257506040513d601f19601f820116820180604052508101906123cf91906141a2565b60015b612455573d8060008114612402576040519150601f19603f3d011682016040523d82523d6000602084013e612407565b606091505b5060008151141561244d576040517f08c379a00000000000000000000000000000000000000000000000000000000081526004016124449061403b565b60405180910390fd5b805181602001fd5b63150b7a0260e01b7bffffffffffffffffffffffffffffffffffffffffffffffffffffffff1916817bffffffffffffffffffffffffffffffffffffffffffffffffffffffff1916149150506124aa565b600190505b949350505050565b505050565b6008805490506009600083815260200190815260200160002081905550600881908060018154018082558091505060019003906000526020600020016000909190919091505550565b6000600161250d84610fc1565b6125179190613ee5565b90506000600760008481526020019081526020016000205490508181146125fc576000600660008673ffffffffffffffffffffffffffffffffffffffff1673ffffffffffffffffffffffffffffffffffffffff168152602001908152602001600020600084815260200190815260200160002054905080600660008773ffffffffffffffffffffffffffffffffffffffff1673ffffffffffffffffffffffffffffffffffffffff168152602001908152602001600020600084815260200190815260200160002081905550816007600083815260200190815260200160002081905550505b6007600084815260200190815260200160002060009055600660008573ffffffffffffffffffffffffffffffffffffffff1673ffffffffffffffffffffffffffffffffffffffff16815260200190815260200160002060008381526020019081526020016000206000905550505050565b600060016008805490506126819190613ee5565b90506000600960008481526020019081526020016000205490506000600883815481106126b1576126b061360e565b5b9060005260206000200154905080600883815481106126d3576126d261360e565b5b906000526020600020018190555081600960008381526020019081526020016000208190555060096000858152602001908152602001600020600090556008805480612722576127216141cf565b5b6001900381819060005260206000200160009055905550505050565b600061274983610fc1565b905081600660008573ffffffffffffffffffffffffffffffffffffffff1673ffffffffffffffffffffffffffffffffffffffff168152602001908152602001600020600083815260200190815260200160002081905550806007600084815260200190815260200160002081905550505050565b600073ffffffffffffffffffffffffffffffffffffffff168273ffffffffffffffffffffffffffffffffffffffff16141561282d576040517f08c379a00000000000000000000000000000000000000000000000000000000081526004016128249061424a565b60405180910390fd5b6128368161197c565b15612876576040517f08c379a000000000000000000000000000000000000000000000000000000000815260040161286d906142b6565b60405180910390fd5b612882600083836121ac565b6001600360008473ffffffffffffffffffffffffffffffffffffffff1673ffffffffffffffffffffffffffffffffffffffff16815260200190815260200160002060008282546128d29190613f19565b92505081905550816002600083815260200190815260200160002060006101000a81548173ffffffffffffffffffffffffffffffffffffffff021916908373ffffffffffffffffffffffffffffffffffffffff160217905550808273ffffffffffffffffffffffffffffffffffffffff16600073ffffffffffffffffffffffffffffffffffffffff167fddf252ad1be2c89b69c2b068fc378daa952ba7f163c4a11628f55a4df523b3ef60405160405180910390a45050565b600080823b905060008111915050919050565b8280546129aa9061322a565b90600052602060002090601f0160209004810192826129cc5760008555612a13565b82601f106129e557805160ff1916838001178555612a13565b82800160010185558215612a13579182015b82811115612a125782518255916020019190600101906129f7565b5b509050612a209190612a24565b5090565b5b80821115612a3d576000816000905550600101612a25565b5090565b6000604051905090565b600080fd5b600080fd5b60007fffffffff0000000000000000000000000000000000000000000000000000000082169050919050565b612a8a81612a55565b8114612a9557600080fd5b50565b600081359050612aa781612a81565b92915050565b600060208284031215612ac357612ac2612a4b565b5b6000612ad184828501612a98565b91505092915050565b60008115159050919050565b612aef81612ada565b82525050565b6000602082019050612b0a6000830184612ae6565b92915050565b600081519050919050565b600082825260208201905092915050565b60005b83811015612b4a578082015181840152602081019050612b2f565b83811115612b59576000848401525b50505050565b6000601f19601f8301169050919050565b6000612b7b82612b10565b612b858185612b1b565b9350612b95818560208601612b2c565b612b9e81612b5f565b840191505092915050565b60006020820190508181036000830152612bc38184612b70565b905092915050565b6000819050919050565b612bde81612bcb565b8114612be957600080fd5b50565b600081359050612bfb81612bd5565b92915050565b600060208284031215612c1757612c16612a4b565b5b6000612c2584828501612bec565b91505092915050565b600073ffffffffffffffffffffffffffffffffffffffff82169050919050565b6000612c5982612c2e565b9050919050565b612c6981612c4e565b82525050565b6000602082019050612c846000830184612c60565b92915050565b612c9381612c4e565b8114612c9e57600080fd5b50565b600081359050612cb081612c8a565b92915050565b60008060408385031215612ccd57612ccc612a4b565b5b6000612cdb85828601612ca1565b9250506020612cec85828601612bec565b9150509250929050565b612cff81612bcb565b82525050565b6000602082019050612d1a6000830184612cf6565b92915050565b600080600060608486031215612d3957612d38612a4b565b5b6000612d4786828701612ca1565b9350506020612d5886828701612ca1565b9250506040612d6986828701612bec565b9150509250925092565b612d7c81612ada565b8114612d8757600080fd5b50565b600081359050612d9981612d73565b92915050565b600060208284031215612db557612db4612a4b565b5b6000612dc384828501612d8a565b91505092915050565b600060208284031215612de257612de1612a4b565b5b6000612df084828501612ca1565b91505092915050565b600081519050919050565b600082825260208201905092915050565b6000819050602082019050919050565b612e2e81612bcb565b82525050565b6000612e408383612e25565b60208301905092915050565b6000602082019050919050565b6000612e6482612df9565b612e6e8185612e04565b9350612e7983612e15565b8060005b83811015612eaa578151612e918882612e34565b9750612e9c83612e4c565b925050600181019050612e7d565b5085935050505092915050565b60006020820190508181036000830152612ed18184612e59565b905092915050565b600080fd5b600080fd5b7f4e487b7100000000000000000000000000000000000000000000000000000000600052604160045260246000fd5b612f1b82612b5f565b810181811067ffffffffffffffff82111715612f3a57612f39612ee3565b5b80604052505050565b6000612f4d612a41565b9050612f598282612f12565b919050565b600067ffffffffffffffff821115612f7957612f78612ee3565b5b612f8282612b5f565b9050602081019050919050565b82818337600083830152505050565b6000612fb1612fac84612f5e565b612f43565b905082815260208101848484011115612fcd57612fcc612ede565b5b612fd8848285612f8f565b509392505050565b600082601f830112612ff557612ff4612ed9565b5b8135613005848260208601612f9e565b91505092915050565b60006020828403121561302457613023612a4b565b5b600082013567ffffffffffffffff81111561304257613041612a50565b5b61304e84828501612fe0565b91505092915050565b6000806040838503121561306e5761306d612a4b565b5b600061307c85828601612ca1565b925050602061308d85828601612d8a565b9150509250929050565b600067ffffffffffffffff8211156130b2576130b1612ee3565b5b6130bb82612b5f565b9050602081019050919050565b60006130db6130d684613097565b612f43565b9050828152602081018484840111156130f7576130f6612ede565b5b613102848285612f8f565b509392505050565b600082601f83011261311f5761311e612ed9565b5b813561312f8482602086016130c8565b91505092915050565b6000806000806080858703121561315257613151612a4b565b5b600061316087828801612ca1565b945050602061317187828801612ca1565b935050604061318287828801612bec565b925050606085013567ffffffffffffffff8111156131a3576131a2612a50565b5b6131af8782880161310a565b91505092959194509250565b600080604083850312156131d2576131d1612a4b565b5b60006131e085828601612ca1565b92505060206131f185828601612ca1565b9150509250929050565b7f4e487b7100000000000000000000000000000000000000000000000000000000600052602260045260246000fd5b6000600282049050600182168061324257607f821691505b60208210811415613256576132556131fb565b5b50919050565b7f4552433732313a20617070726f76656420717565727920666f72206e6f6e657860008201527f697374656e7420746f6b656e0000000000000000000000000000000000000000602082015250565b60006132b8602c83612b1b565b91506132c38261325c565b604082019050919050565b600060208201905081810360008301526132e7816132ab565b9050919050565b7f4552433732313a20617070726f76616c20746f2063757272656e74206f776e6560008201527f7200000000000000000000000000000000000000000000000000000000000000602082015250565b600061334a602183612b1b565b9150613355826132ee565b604082019050919050565b600060208201905081810360008301526133798161333d565b9050919050565b7f4552433732313a20617070726f76652063616c6c6572206973206e6f74206f7760008201527f6e6572206e6f7220617070726f76656420666f7220616c6c0000000000000000602082015250565b60006133dc603883612b1b565b91506133e782613380565b604082019050919050565b6000602082019050818103600083015261340b816133cf565b9050919050565b7f4552433732313a207472616e736665722063616c6c6572206973206e6f74206f60008201527f776e6572206e6f7220617070726f766564000000000000000000000000000000602082015250565b600061346e603183612b1b565b915061347982613412565b604082019050919050565b6000602082019050818103600083015261349d81613461565b9050919050565b7f4f776e61626c653a2063616c6c6572206973206e6f7420746865206f776e6572600082015250565b60006134da602083612b1b565b91506134e5826134a4565b602082019050919050565b60006020820190508181036000830152613509816134cd565b9050919050565b7f455243373231456e756d657261626c653a206f776e657220696e646578206f7560008201527f74206f6620626f756e6473000000000000000000000000000000000000000000602082015250565b600061356c602b83612b1b565b915061357782613510565b604082019050919050565b6000602082019050818103600083015261359b8161355f565b9050919050565b7f42616c616e636520697320300000000000000000000000000000000000000000600082015250565b60006135d8600c83612b1b565b91506135e3826135a2565b602082019050919050565b60006020820190508181036000830152613607816135cb565b9050919050565b7f4e487b7100000000000000000000000000000000000000000000000000000000600052603260045260246000fd5b7f4e487b7100000000000000000000000000000000000000000000000000000000600052601160045260246000fd5b600061367782612bcb565b91507fffffffffffffffffffffffffffffffffffffffffffffffffffffffffffffffff8214156136aa576136a961363d565b5b600182019050919050565b7f455243373231456e756d657261626c653a20676c6f62616c20696e646578206f60008201527f7574206f6620626f756e64730000000000000000000000000000000000000000602082015250565b6000613711602c83612b1b565b915061371c826136b5565b604082019050919050565b6000602082019050818103600083015261374081613704565b9050919050565b7f4552433732313a206f776e657220717565727920666f72206e6f6e657869737460008201527f656e7420746f6b656e0000000000000000000000000000000000000000000000602082015250565b60006137a3602983612b1b565b91506137ae82613747565b604082019050919050565b600060208201905081810360008301526137d281613796565b9050919050565b7f4552433732313a2062616c616e636520717565727920666f7220746865207a6560008201527f726f206164647265737300000000000000000000000000000000000000000000602082015250565b6000613835602a83612b1b565b9150613840826137d9565b604082019050919050565b6000602082019050818103600083015261386481613828565b9050919050565b7f4d696e74206973206e6f74206163746976617465000000000000000000000000600082015250565b60006138a1601483612b1b565b91506138ac8261386b565b602082019050919050565b600060208201905081810360008301526138d081613894565b9050919050565b7f4e6f7420656e6f75676820616d6f756e74000000000000000000000000000000600082015250565b600061390d601183612b1b565b9150613918826138d7565b602082019050919050565b6000602082019050818103600083015261393c81613900565b9050919050565b7f596f752063616e206d696e74206f6e6c792074776f20746f6b656e207065722060008201527f77616c6c65740000000000000000000000000000000000000000000000000000602082015250565b600061399f602683612b1b565b91506139aa82613943565b604082019050919050565b600060208201905081810360008301526139ce81613992565b9050919050565b7f416c6c20746f6b656e732068617665206265656e206d696e7465640000000000600082015250565b6000613a0b601b83612b1b565b9150613a16826139d5565b602082019050919050565b60006020820190508181036000830152613a3a816139fe565b9050919050565b7f45746865722076616c75652073656e74206973206e6f7420636f727265637400600082015250565b6000613a77601f83612b1b565b9150613a8282613a41565b602082019050919050565b60006020820190508181036000830152613aa681613a6a565b9050919050565b7f4552433732313a20617070726f766520746f2063616c6c657200000000000000600082015250565b6000613ae3601983612b1b565b9150613aee82613aad565b602082019050919050565b60006020820190508181036000830152613b1281613ad6565b9050919050565b7f546f6b656e20646f6573206e6f74206578697374000000000000000000000000600082015250565b6000613b4f601483612b1b565b9150613b5a82613b19565b602082019050919050565b60006020820190508181036000830152613b7e81613b42565b9050919050565b600081905092915050565b60008190508160005260206000209050919050565b60008154613bb28161322a565b613bbc8186613b85565b94506001821660008114613bd75760018114613be857613c1b565b60ff19831686528186019350613c1b565b613bf185613b90565b60005b83811015613c1357815481890152600182019150602081019050613bf4565b838801955050505b50505092915050565b6000613c2f82612b10565b613c398185613b85565b9350613c49818560208601612b2c565b80840191505092915050565b6000613c618285613ba5565b9150613c6d8284613c24565b91508190509392505050565b6000613c858285613c24565b9150613c918284613c24565b91508190509392505050565b7f4f776e61626c653a206e6577206f776e657220697320746865207a65726f206160008201527f6464726573730000000000000000000000000000000000000000000000000000602082015250565b6000613cf9602683612b1b565b9150613d0482613c9d565b604082019050919050565b60006020820190508181036000830152613d2881613cec565b9050919050565b7f4552433732313a206f70657261746f7220717565727920666f72206e6f6e657860008201527f697374656e7420746f6b656e0000000000000000000000000000000000000000602082015250565b6000613d8b602c83612b1b565b9150613d9682613d2f565b604082019050919050565b60006020820190508181036000830152613dba81613d7e565b9050919050565b7f4552433732313a207472616e73666572206f6620746f6b656e2074686174206960008201527f73206e6f74206f776e0000000000000000000000000000000000000000000000602082015250565b6000613e1d602983612b1b565b9150613e2882613dc1565b604082019050919050565b60006020820190508181036000830152613e4c81613e10565b9050919050565b7f4552433732313a207472616e7366657220746f20746865207a65726f2061646460008201527f7265737300000000000000000000000000000000000000000000000000000000602082015250565b6000613eaf602483612b1b565b9150613eba82613e53565b604082019050919050565b60006020820190508181036000830152613ede81613ea2565b9050919050565b6000613ef082612bcb565b9150613efb83612bcb565b925082821015613f0e57613f0d61363d565b5b828203905092915050565b6000613f2482612bcb565b9150613f2f83612bcb565b9250827fffffffffffffffffffffffffffffffffffffffffffffffffffffffffffffffff03821115613f6457613f6361363d565b5b828201905092915050565b6000613f7a82612bcb565b9150613f8583612bcb565b9250817fffffffffffffffffffffffffffffffffffffffffffffffffffffffffffffffff0483118215151615613fbe57613fbd61363d565b5b828202905092915050565b7f4552433732313a207472616e7366657220746f206e6f6e20455243373231526560008201527f63656976657220696d706c656d656e7465720000000000000000000000000000602082015250565b6000614025603283612b1b565b915061403082613fc9565b604082019050919050565b6000602082019050818103600083015261405481614018565b9050919050565b7f4e487b7100000000000000000000000000000000000000000000000000000000600052601260045260246000fd5b600061409582612bcb565b91506140a083612bcb565b9250826140b0576140af61405b565b5b828204905092915050565b60006140c682612bcb565b91506140d183612bcb565b9250826140e1576140e061405b565b5b828206905092915050565b600081519050919050565b600082825260208201905092915050565b6000614113826140ec565b61411d81856140f7565b935061412d818560208601612b2c565b61413681612b5f565b840191505092915050565b60006080820190506141566000830187612c60565b6141636020830186612c60565b6141706040830185612cf6565b81810360608301526141828184614108565b905095945050505050565b60008151905061419c81612a81565b92915050565b6000602082840312156141b8576141b7612a4b565b5b60006141c68482850161418d565b91505092915050565b7f4e487b7100000000000000000000000000000000000000000000000000000000600052603160045260246000fd5b7f4552433732313a206d696e7420746f20746865207a65726f2061646472657373600082015250565b6000614234602083612b1b565b915061423f826141fe565b602082019050919050565b6000602082019050818103600083015261426381614227565b9050919050565b7f4552433732313a20746f6b656e20616c7265616479206d696e74656400000000600082015250565b60006142a0601c83612b1b565b91506142ab8261426a565b602082019050919050565b600060208201905081810360008301526142cf81614293565b905091905056fea2646970667358221220278101d6e98acbfa6a55360471b8bc7a94b0be54f8ab57a156ca58af6097492764736f6c63430008090033",
  "immutableReferences": {},
  "source": "// SPDX-License-Identifier: MIT\npragma solidity >=0.4.22 <0.9.0;\n\nimport \"@openzeppelin/contracts/token/ERC721/extensions/ERC721Enumerable.sol\";\nimport \"@openzeppelin/contracts/access/Ownable.sol\";\nimport \"@openzeppelin/contracts/utils/math/SafeMath.sol\";\n\ncontract DemonEyes is ERC721Enumerable, Ownable {\n    using Strings for uint256;\n    using SafeMath for uint256;\n\n    uint256 public constant MAX_MINT_AMOUNT = 2;\n    uint256 public constant MAX_SUPPLY = 25;\n\n    string private _tokenBaseURI;\n    string private _notRevealedUri;\n\n    bool public isActive = false;\n    uint256 public cost = 0.02 ether;\n\n    constructor(\n        string memory _name,\n        string memory _symbol,\n        string memory _initNotRevealedUri\n    ) ERC721(_name, _symbol) {\n        setNotRevealedURI(_initNotRevealedUri);\n    }\n\n    // @Dev Internal Functions\n    function _baseURI() internal view virtual override returns (string memory) {\n        return _tokenBaseURI;\n    }\n\n    // @Dev Public Functions\n    function mint(uint256 _mintAmount) public payable {\n        require(isActive, \"Mint is not activate\");\n        require(_mintAmount > 0, \"Not enough amount\");\n        require(\n            _mintAmount <= MAX_MINT_AMOUNT,\n            \"You can mint only two token per wallet\"\n        );\n        require(\n            totalSupply().add(_mintAmount) <= MAX_SUPPLY,\n            \"All tokens have been minted\"\n        );\n\n        if (msg.sender != owner()) {\n            require(\n                msg.value >= cost.mul(_mintAmount),\n                \"Ether value sent is not correct\"\n            );\n        }\n\n        for (uint256 i = 0; i < _mintAmount; i++) {\n            uint256 tokenId = totalSupply().add(1);\n            _safeMint(msg.sender, tokenId);\n        }\n    }\n\n    function walletOfOwner(address _owner)\n        public\n        view\n        returns (uint256[] memory)\n    {\n        uint256 ownerTokenCount = balanceOf(_owner);\n        uint256[] memory tokenIds = new uint256[](ownerTokenCount);\n        for (uint256 i; i < ownerTokenCount; i++) {\n            tokenIds[i] = tokenOfOwnerByIndex(_owner, i);\n        }\n        return tokenIds;\n    }\n\n    function tokenURI(uint256 tokenId)\n        public\n        view\n        virtual\n        override\n        returns (string memory)\n    {\n        // @Dev Check if token exist\n        require(_exists(tokenId), \"Token does not exist\");\n\n        string memory revealedBaseURI = _baseURI();\n        return\n            bytes(revealedBaseURI).length > 0\n                ? string(abi.encodePacked(revealedBaseURI, tokenId.toString()))\n                : string(abi.encodePacked(_notRevealedUri, tokenId.toString()));\n    }\n\n    // @Dev Only Owner Functions\n    function setCost(uint256 _newCost) public onlyOwner {\n        cost = _newCost;\n    }\n\n    function setNotRevealedURI(string memory _notRevealedURI) public onlyOwner {\n        _notRevealedUri = _notRevealedURI;\n    }\n\n    function setBaseURI(string memory _newBaseURI) public onlyOwner {\n        _tokenBaseURI = _newBaseURI;\n    }\n\n    function setIsActive(bool _isActive) public onlyOwner {\n        isActive = _isActive;\n    }\n\n    function withdraw() external onlyOwner {\n        require(address(this).balance > 0, \"Balance is 0\");\n        payable(owner()).transfer(address(this).balance);\n    }\n}\n",
  "sourcePath": "/Users/clement/Dev/dapp_nft/src/contracts/DemonEyes.sol",
  "compiler": {
    "name": "solc",
    "version": "0.8.9+commit.e5eed63a.Emscripten.clang"
  },
  "schemaVersion": "3.4.7",
  "updatedAt": "2022-05-05T15:49:53.032Z",
  "devdoc": {
    "kind": "dev",
    "methods": {
      "approve(address,uint256)": {
        "details": "See {IERC721-approve}."
      },
      "balanceOf(address)": {
        "details": "See {IERC721-balanceOf}."
      },
      "getApproved(uint256)": {
        "details": "See {IERC721-getApproved}."
      },
      "isApprovedForAll(address,address)": {
        "details": "See {IERC721-isApprovedForAll}."
      },
      "name()": {
        "details": "See {IERC721Metadata-name}."
      },
      "owner()": {
        "details": "Returns the address of the current owner."
      },
      "ownerOf(uint256)": {
        "details": "See {IERC721-ownerOf}."
      },
      "renounceOwnership()": {
        "details": "Leaves the contract without owner. It will not be possible to call `onlyOwner` functions anymore. Can only be called by the current owner. NOTE: Renouncing ownership will leave the contract without an owner, thereby removing any functionality that is only available to the owner."
      },
      "safeTransferFrom(address,address,uint256)": {
        "details": "See {IERC721-safeTransferFrom}."
      },
      "safeTransferFrom(address,address,uint256,bytes)": {
        "details": "See {IERC721-safeTransferFrom}."
      },
      "setApprovalForAll(address,bool)": {
        "details": "See {IERC721-setApprovalForAll}."
      },
      "supportsInterface(bytes4)": {
        "details": "See {IERC165-supportsInterface}."
      },
      "symbol()": {
        "details": "See {IERC721Metadata-symbol}."
      },
      "tokenByIndex(uint256)": {
        "details": "See {IERC721Enumerable-tokenByIndex}."
      },
      "tokenOfOwnerByIndex(address,uint256)": {
        "details": "See {IERC721Enumerable-tokenOfOwnerByIndex}."
      },
      "tokenURI(uint256)": {
        "details": "See {IERC721Metadata-tokenURI}."
      },
      "totalSupply()": {
        "details": "See {IERC721Enumerable-totalSupply}."
      },
      "transferFrom(address,address,uint256)": {
        "details": "See {IERC721-transferFrom}."
      },
      "transferOwnership(address)": {
        "details": "Transfers ownership of the contract to a new account (`newOwner`). Can only be called by the current owner."
      }
    },
    "version": 1
  },
  "userdoc": {
    "kind": "user",
    "methods": {},
    "version": 1
  }
}